:060000008031E42A00003B
:0800080083018031200077081C
:10001000A0007808A1007908A2007A08A3002300B4
:1000200011082000A400230012082000A5002300CE
:1000300013082000A600230014082000A7008B1E30
:1000400023280B194A28850191308400801E2A2814
:10005000911A4C28850191308400001F3128111B12
:100060004E282008F7002108F8002208F90023088C
:10007000FA002408230091002000250823009200A4
:100080002000260823009300200027082300940066
:100090000900200080318E2880316328803150286B
:1000A0001130F70021009D1C5728F70B53281B081F
:1000B000F8001C082000B0007808AF000130B10043
:1000C000111380313128AA08031D6E28911E66285D
:1000D000230019082000AD000130AA002D08533C70
:1000E000031976282D08733C031D8B282A0B8B28B7
:1000F000911E7828230019082000AE002E08303CFD
:10010000031D84280130AB002E08313C031D8A28D2
:100110000230AB00AA019112803131283D309500A8
:100120002808133C03189728A8010130A900A80A41
:100130000B11803131280D05C539F032F2306E32A5
:100140006F172E170D0500000D05CE37A03965106D
:10015000ED306E326137A036E1392032613AEF3945
:100160000D0500010D05D03774103D1025366400D3
:100170000D05D22031103D10A53A20000D05AD1619
:10018000AD16AD16AD16AD16AD16AD16AD16AD1657
:10019000AD16AD16AD160D050000FF3021008C0028
:1001A00004308D008C1022008C1021000C112200D4
:1001B0000C1121008C1122008C1121000C12220044
:1001C0000C1221008C1222008C1221000C13220030
:1001D0000C1321008C1322008C1321009116803106
:1001E00020000A2B21001508C039073895003D3042
:1001F000200095008B1680310B2B21001E109E10C5
:100200001E11013023008C0000308D0021001E16CD
:100210009E161E139E171D14F8001D0883397804BE
:100220009D001117803120000C2B0B088B1323002D
:100230009517151400000000891B8B1713087F39D0
:10024000031963292000B400230011082000B50021
:10025000230012082000B6003408111E2D292300A7
:100260009A00200035082300910020003608230062
:1002700092000B088B139517151400000000891BC2
:100280008B17130D140D7F39031963292000B40057
:10029000230011082000B500230012082000B6003A
:1002A0003408111E512923009A002000350823002C
:1002B00091002000360823009200910A0319920A47
:1002C000200015292300200008000B088B132300B1
:1002D0009517151400000000891B8B170318992926
:1002E00013087F392000B700230011082000B80050
:1002F000230012082000B9003708111E7D292300B1
:100300009A002000380823009100200039082300BB
:1003100092000B088B139517151400000000891B21
:100320008B172000B50B9529972923009929BA2905
:100330002300130D140D7F392000B700230011088E
:100340002000B800230012082000B9003708111E51
:10035000A72923009A0020003808230091002000DC
:10036000390823009200910A0319920A0310200011
:10037000B50B652908003808F80137020318C329AE
:100380003708F700CF29F7010830B900B70DF70D8E
:10039000380877020318F700F80DB90BC6290800D2
:1003A0002B08003A0319DB29013A0319E829033A1B
:1003B0000319F129E12AAC08031DE7299B3023002A
:1003C000910000309200200015210130AC00E22A9B
:1003D000A430230091000030920020001521AB01D1
:1003E000E22A290BE02A310BE02AB23023009100E7
:1003F00000309200031008302000B5006521103055
:1004000084003008B5002F08B4000508BE000408B9
:10041000BD00B51F132ABD173D1EBD0AB409B5099D
:10042000B40A0319B50A350EF038B900B907E23E2F
:10043000BA00323EBC0035080F39BA07BA07BC070C
:10044000E93EBB00BB07BB07340E0F39BB07BC0737
:10045000BB0DBC0DBC09BC0D34080F39BC07B90D70
:100460000730B8000A30BC07BB03031C332ABB07A4
:10047000BA03031C372ABA07B903031C3B2AB9077E
:10048000B803031C3F2A2030850018308400073051
:100490003D053D133F313D05031D552A3D1A0131F0
:1004A0003D1A552A2030F700782A84070030853D10
:1004B00004081C3C031D602A0508203C03193D1755
:1004C0000008F700031D6C2A3D1B6C2A3D1A7E2A8A
:1004D000BD196C2A2030772ABD1F742A2D30F700F1
:1004E00011003D13BD13782ABD153D123030F707BA
:1004F0007708111E792A23009A00200001313D1F40
:10050000582A21008C14003020008C180130B400CF
:10051000B830230091000030920003100830200012
:10052000B50065213408B5001B30B6003508B700AA
:100530006430B800BB217708B50078083030031D5F
:10054000A82AB61CB22AB619B22A361A2030AB2A0B
:10055000B61136123614F8077808111EAD2A23009A
:100560009A0020003508B7000A30B800BB21770890
:10057000B50078083030031DC32AB619CA2A361CC4
:10058000CA2A361A2030F8077808111EC52A230017
:100590009A0020003030B5073508111ECD2A2300FF
:1005A0009A0020302000111ED32A23009A00BE306A
:1005B00091000030920020001521A901AC01B10189
:1005C000E22AAB018031122B6A302100990022000F
:1005D0001E149D1723009F1119309B00A6309E000A
:1005E00090309D002000A801A901AA01AB01AC0137
:1005F0002030AD00AE00B001AF01B101B301B201D6
:1006000023008C018D01220092019101940193013C
:100610002000CD28F228FD28C0308B0421009D1435
:080620002000D0290E2B63001D
:020000040001F9
:04000E00843FFF1E0E
:00000001FF
;PIC16F1827
;CRC=3FEE  CREATED="11-oct-25 15:35"
