:100000008031F9290000073021008D0000308C007C
:10001000013024008D00210095130D1222000D16D1
:1000200021008D1222008D1621000D1322000D17C4
:1000300021008D1322008D1721008C1022008C10BE
:1000400021000C1122000C1121000C1022000C10B8
:1000500021000C1222000C1221008C1222008C12A2
:1000600021000C1322000C1321008C1322008C138E
:10007000803120002B2A203085001A3084000008AF
:1000800003194F280630F800F701F70B4528F80B45
:1000900044287B30F700F70B4B28800B42280800E0
:1000A0003E0EF039F7000F300D0577048D0000008B
:1000B0000D140330F700F70B5B280D1008000D0836
:1000C000F7000D0E0F39F800080021000D108D10FB
:1000D0000D1120008D100F3021000D05F0388D001E
:1000E00020000D1500000D1400005F207808BE00F0
:1000F0000D1000000D147C287D2800005F2078087A
:10010000BD000D100F3021000D058D0020003E0EAA
:10011000F700F030F70577083D04F8007808BD00D7
:10012000BD1B6B283B1C8D103B188D1400000D115E
:1001300000000D103C0EBD000F30BD053D08BE0097
:1001400050203C080F39BD00BE0050200800283068
:10015000B6000C30B7000130B8000630B9000D1001
:100160008D100D110F3021000D058D000D108D101B
:100170000D110F302000BA003B200130B5003508CA
:10018000033C031CCB280330BE0050200530BA00CE
:100190003B20B50ABF280230BE0050200530BA000F
:1001A0003B20B5013508033C031CE5281630350714
:1001B0008400203085000318850A0008BA00BB01BE
:1001C0003A08BC006520B50AD22880312C2A3808AC
:1001D0000739F700380CF800F80CF80C1F30F80558
:1001E00078083A07840000303B3D8500F801F80AA2
:1001F000F70AFB28F80DF70BFA28B90803190329A9
:10020000780880040629F80978088005080038086D
:100210000739F700380CF800F80CF80C1F30F80517
:1002200078083907840000303A3D85000008F8005E
:10023000F70A1B29F80CF70B1A290130F805803151
:10024000AF29370B242927294030B8002829B801C5
:1002500001303602B80738088038B900BB013908C8
:10026000BC00652008003508073A031941290B3AFC
:1002700003194629063A03194E29023A031954294B
:1002800059290130B600B70021215E29BB01013098
:10029000BC0065200230BA003B205E290130B60068
:1002A0000230B70021215E29BB011030BC0065205F
:1002B0005E290130BB003508BC0065200800003015
:1002C00020180130003A03196929013A0319F0296D
:1002D000F729B5013508033C031CE82921000D125C
:1002E00022000D1621008D1222008D1621000D1303
:1002F00022000D1721008D1322008D1702302000DF
:1003000035078400203085000318850A0008B700EF
:10031000B800B9010130BB00BA01E7203708B800C6
:10032000B901BB018030BA00E720B6013608023CB3
:10033000031CE629063036078400203085000318A8
:10034000850A0008B700B8000130B900BB01803051
:10035000BA00E7203708B800BA01B90107297818B0
:10036000E4293508B7000330B800F701F801370871
:1003700003103818F707F70CF80CB818F707F70C44
:10038000F80C3819F707F70CF80CB819F707F70C41
:10039000F80C381AF707F70CF80CB81AF707F70C2F
:1003A000F80C381BF707F70CF80CB81BF707F70C1D
:1003B000F80C36087807093E8400203085000318C1
:1003C000850A0008F800EA29B60A9629B50A6A29BA
:1003D0000030F8007808A100A108031D2014F729B7
:1003E0000C30B50033212108B500332120108031B5
:1003F0002D2A2010A10123008C018D0122009201E1
:100400009101940193016C302000A2006D30A30093
:100410006E30A4006F30A5006830A6006930A700D8
:100420006A30A8003130A9003230AA003330AB0066
:100430003430AC003530AD003630AE003730AF0070
:100440003830B0003930B1002A30B2003030B3005B
:0E0450002330B4000328A7285F292C2A63005C
:020000040001F9
:04000E00843FFF1F0D
:00000001FF
;PIC16F1827
;CRC=4A28  CREATED="19-sep.-25 15:00"
