:100000008031E92A00000C0083018031200077084C
:10001000A0007808A1007908A2007A08A3002300B4
:1000200011082000A400230012082000A5002300CE
:1000300013082000A600230014082000A7008B1E30
:1000400023280B194328850191308400001F2A289A
:10005000111B45282008F7002108F8002208F900A4
:100060002308FA002408230091002000250823001B
:100070009200200026082300930020002708230078
:1000800094000900200080314728803154283D30F9
:1000900095003408133C03185028B4010130B50012
:1000A000B40A0B1180312A285830F70021009D1C1A
:1000B0005B28F70B57281B08F8001C082000B2002B
:1000C0007808B1000130B300111380312A280F30B5
:1000D00021008D0000308C00013024008D002100B3
:1000E00095130D1222000D1621008D1222008D167F
:1000F00021000D1322000D1721008D1322008D17F2
:1001000021008C1022008C1021000C1122000C11F7
:1001100021000C1022000C1021000C1222000C12E5
:1001200021008C1222008C1221000C1322000C13CF
:1001300021008C1322008C130B16C0308B048031ED
:100140002000222B203085002A308400000803196B
:10015000B6280630F800F701F70BAC28F80BAB28EF
:100160007B30F700F70BB228800BA9280800510E4E
:10017000F039F7000F300D0577048D0000000D14E5
:100180000330F700F70BC2280D1008000D08F70028
:100190000D0E0F39F800080021000D108D100D1103
:1001A00020008D100F3021000D05F0388D0020004B
:1001B0000D1500000D140000C6207808D1000D10A8
:1001C00000000D14E328E4280000C6207808D000C1
:1001D0000D100F3021000D058D002000510EF7008D
:1001E000F030F70577085004F8007808D000D01BED
:1001F000D2284E1C8D104E188D1400000D110000D9
:100200000D104F0ED0000F30D0055008D100B72090
:100210004F080F39D000D100B72008002830C500A2
:100220000C30C6000130C7000630C8000D108D101C
:100230000D110F3021000D058D000D108D100D11C9
:100240000F302000CA00A2200130C4004408033C43
:10025000031C32290330D100B7200530CA00A22088
:10026000C40A26290230D100B7200530CA00A220D6
:10027000C4014408033C031C4C2925304407840076
:10028000203085000318850A0008C900CE014908FE
:10029000CF00CC20C40A39298031232B21001E1025
:1002A0009E101E11013023008C0000308D002100B3
:1002B0001E169E161E139E171D14F8001D08833966
:1002C00078049D00111780312000242B210015088F
:1002D000C039073895003D30200095008B168031DD
:1002E000252B47080739F700470CF800F80CF80CE5
:1002F0001F30F80578084907840000304A3D850022
:10030000F801F80AF70A8529F80DF70B8429C808BF
:1003100003198D29780880049029F8097808800548
:10032000080047080739F700470CF800F80CF80CEC
:100330001F30F8057808480784000030493D8500E3
:100340000008F800F70AA529F80CF70BA4290130DA
:10035000F80580313C2A4B0BAE29B1294030CC0046
:10036000B229CC0101304A02CC074C088038CD00BC
:10037000CE014D08CF00CC2008004908073A0319E8
:10038000CB290B3A0319D029063A0319D829023A86
:100390000319DE29E3290130CA00CB00AB21E8298B
:1003A000CE010130CF00CC200230CA00A220E829C3
:1003B0000130CA000230CB00AB21E829CE01103059
:1003C000CF00CC20E8290130CE004908CF00CC2056
:1003D0000800003028180130003A0319F329013AC7
:1003E0000319802AE72A21009D142000C401440833
:1003F000033C031C752A21000D1222000D1621005A
:100400008D1222008D1621000D1322000D172100E0
:100410008D1322008D170A302000440784002030FD
:1004200085000318850A0008C600C700C80101300E
:10043000CA00C90171214608C700C801CA0180303D
:10044000C9007121C5014508023C031C732A0E3006
:1004500045078400203085000318850A0008C6007F
:10046000C7000130C800CA018030C90071214608A8
:10047000C700C901C80191297818712A4408C6002B
:100480000330C700F701F801460803104718F707C3
:10049000F70CF80CC718F707F70CF80C4719F70713
:1004A000F70CF80CC719F707F70CF80C471AF70701
:1004B000F70CF80CC71AF707F70CF80C471BF707EF
:1004C000F70CF80CC71BF707F70CF80C4508780772
:1004D000163E8400203085000318850A0008F800C5
:1004E000772AC50A232AC40AF7290030F8007808B9
:1004F000A900A90803197F2A330B7F2A2814E72AA9
:10050000350BE72A0C30C900BD21033023009100D0
:10051000003092000B088B13951715140000000093
:10052000891B8B1713087F390319CF2A2000C600B7
:10053000230011082000C700230012082000C80073
:100540004608C900BD214708230091002000480843
:10055000230092000B088B13951715140000000060
:10056000891B8B17130D140D7F390319CF2A200017
:10057000C600230011082000C70023001208200035
:10058000C8004608C900BD2147082300910020008B
:10059000480823009200910A0319920A8A2A20002F
:1005A000320885003108840080080319E42A050810
:1005B000C5000408C4000008C900BD214508850025
:1005C000440884000131D42AB501B30128108031D8
:1005D000262B2810A901B201B101B301B401B50164
:1005E000C301C20123008C018D01220092019101FF
:1005F000940193016C302000AA006D30AB006E3086
:10060000AC006F30AD006830AE006930AF006A30CA
:10061000B0003130B6003230B7003330B80034307B
:10062000B9003530BA003630BB003730BC00383046
:10063000BD003930BE002A30BF003030C00023304A
:10064000C10067280E294E296629E929252B630058
:020000040001F9
:04000E00843FFF1F0D
:00000001FF
;PIC16F1827
;CRC=7A1C  CREATED="18-sept-25 21:20"
