:100000008031292A0000C827CC20000021001E10C2
:100010009E101E11003023008C008D0022009201E2
:10002000910194019301073021008D0000308C0074
:10003000013024008D0021009513803120005D2ABD
:10004000203085001C308400000803193428063055
:10005000F800F701F70B2A28F80B29287B30F70066
:10006000F70B3028800B27280800420EF039F700E4
:100070000F300D0577048D0000000D140330F700DC
:10008000F70B40280D1008000D08F7000D0E0F3972
:10009000F800080021000D108D100D1120008D10AA
:1000A0000F3021000D05F0388D0020000D150000E7
:1000B0000D14000044207808C2000D1000000D143B
:1000C00061286228000044207808C1000D100F301C
:1000D00021000D058D002000420EF700F030F705DD
:1000E00077084104F8007808C100C11B50283F1C64
:1000F0008D103F188D1400000D1100000D10400EE2
:10010000C1000F30C1054108C200352040080F3939
:10011000C100C200352008002830B8000C30B900FA
:100120000130BA000630BB000D108D100D110F30DC
:1001300021000D058D000D108D100D110F302000C8
:10014000BC0020200130B7003708033C031CB02856
:100150000330C20035200530BC002020B70AA42897
:100160000230C20035200530BC002020B70137081E
:10017000033C031CCA281830370784002030850050
:100180000318850A0008BC00BF013C08C0004A20D3
:10019000B70AB72880315E2A3C0BCF28D2284030DE
:1001A000BD00D328BD0101303B02BD073D088038AA
:1001B000BE00BF013E08C0004A2008003A08073AC6
:1001C0000319EC280B3A0319F128063A0319F92808
:1001D000023A0319FF2804290130BB00BC00CC20DF
:1001E0000929BF010130C0004A200230BC00202094
:1001F00009290130BB000230BC00CC200929BF0115
:100200001030C0004A2009290130BF003A08C00060
:100210004A2008000B088B132300951715140000C3
:100220000000891B8B1713087F39031952292000FE
:10023000B700230011082000B80023001208200096
:10024000B9003708BA00DE203808230091002000EA
:100250003908230092000B088B1395171514000022
:100260000000891B8B17130D140D7F3903195229B8
:100270002000B700230011082000B8002300120856
:100280002000B9003708BA00DE20380823009100AA
:100290002000390823009200910A0319920A2000D5
:1002A0000A29230080312000652A3A080739F7001F
:1002B0003A0CF800F80CF80C1F30F80578083C07E9
:1002C000840000303D3D8500F801F80AF70A6929ED
:1002D000F80DF70B6829BB08031971297808800409
:1002E0007429F8097808800508003A080739F700EA
:1002F0003A0CF800F80CF80C1F30F80578083B07AA
:10030000840000303C3D85000008F800F70A892988
:10031000F80CF70B88290130F8058031DF2900300F
:1003200020180130003A03199929013A0319202AAB
:10033000272AB7013708033C031C182A21000D1295
:1003400022000D1621008D1222008D1621000D13A2
:1003500022000D1721008D1322008D17023020007E
:1003600037078400203085000318850A0008B9008B
:10037000BA00BB010130BD00BC0155213908BA00EB
:10038000BB01BD018030BC005521B8013808023CDA
:10039000031C162A06303807840020308500031815
:1003A000850A0008B900BA000130BB00BD018030E9
:1003B000BC0055213908BA00BC01BB017529781869
:1003C000142A3708B9000330BA00F701F8013908D8
:1003D00003103A18F707F70CF80CBA18F707F70CE0
:1003E000F80C3A19F707F70CF80CBA19F707F70CDD
:1003F000F80C3A1AF707F70CF80CBA1AF707F70CCB
:10040000F80C3A1BF707F70CF80CBA1BF707F70CB8
:10041000F80C38087807093E84002030850003185E
:10042000850A0008F8001A2AB80AC629B70A9A29C4
:100430000030F8007808A100A108031D2014272A25
:100440000C30BA00DE202108BA00DE2020108031F6
:10045000662A2010A101B601B50123008C018D018F
:10046000220092019101940193016C302000A200BE
:100470006D30A3006E30A4006F30A5006830A60078
:100480006930A7006A30A8003130A9003230AA00D4
:100490003330AB003430AC003530AD003630AE0018
:1004A0003730AF003830B0003930B1002A30B200F8
:1004B0003030B3002330B40006288C2803302300EA
:1004C00091000030920020000A298F29652A6300DC
:020000040001F9
:04000E00843FFF1F0D
:00000001FF
;PIC16F1827
;CRC=6891  CREATED="31-oct.-25 10:45"
