:100000008031472A0000C837EC300000073021005B
:100010008D0000308C00013024008D0021009513EC
:100020000D1222000D1621008D1222008D162100C6
:100030000D1322000D1721008D1322008D172100B2
:100040008C1022008C1021000C1122000C112100B8
:100050000C1022000C1021000C1222000C122100A6
:100060008C1222008C1221000C1322000C13210090
:100070008C1322008C13803120007B2A20308500D5
:100080001C3084000008031952280630F800F701DC
:10009000F70B4828F80B47287B30F700F70B4E2862
:1000A000800B45280800420EF039F7000F300D058F
:1000B00077048D0000000D140330F700F70B5E2865
:1000C0000D1008000D08F7000D0E0F39F80008009C
:1000D00021000D108D100D1120008D100F3021000A
:1000E0000D05F0388D0020000D1500000D140000E6
:1000F00062207808C2000D1000000D147F288028AF
:10010000000062207808C1000D100F3021000D059D
:100110008D002000420EF700F030F705770841040B
:10012000F8007808C100C11B6E283F1C8D103F18D5
:100130008D1400000D1100000D10400EC1000F3095
:10014000C1054108C200532040080F39C100C20058
:10015000532008002830B8000C30B9000130BA0034
:100160000630BB000D108D100D110F3021000D0554
:100170008D000D108D100D110F302000BC003E20A1
:100180000130B7003708033C031CCE280330C200FF
:1001900053200530BC003E20B70AC2280230C200FE
:1001A00053200530BC003E20B7013708033C031C38
:1001B000E828183037078400203085000318850AA6
:1001C0000008BC00BF013C08C0006820B70AD52861
:1001D00080317C2A3A080739F7003A0CF800F80C0D
:1001E000F80C1F30F80578083C07840000303D3DCE
:1001F0008500F801F80AF70AFE28F80DF70BFD282C
:10020000BB0803190629780880040929F809780829
:10021000800508003A080739F7003A0CF800F80C96
:10022000F80C1F30F80578083B07840000303C3D8F
:1002300085000008F800F70A1E29F80CF70B1D29A5
:100240000130F8058031B2293C0B27292A2940309A
:10025000BD002B29BD0101303B02BD073D088038A0
:10026000BE00BF013E08C000682008003A08073AF7
:10027000031944290B3A03194929063A031951294C
:10028000023A031957295C290130BB00BC00242124
:100290006129BF010130C00068200230BC003E204F
:1002A00061290130BB000230BC0024216129BF015B
:1002B0001030C000682061290130BF003A08C0003A
:1002C00068200800003020180130003A03196C291A
:1002D000013A0319F329452AB7013708033C031CE7
:1002E000EB2921000D1222000D1621008D12220093
:1002F0008D1621000D1322000D1721008D132200F1
:100300008D17023020003707840020308500031845
:10031000850A0008B900BA00BB010130BD00BC016C
:10032000EA203908BA00BB01BD018030BC00EA20D8
:10033000B8013808023C031CE9290630380784005C
:10034000203085000318850A0008B900BA00013082
:10035000BB00BD018030BC00EA203908BA00BC01F6
:10036000BB010A297818E7293708B9000330BA0019
:10037000F701F801390803103A18F707F70CF80CE1
:10038000BA18F707F70CF80C3A19F707F70CF80C3E
:10039000BA19F707F70CF80C3A1AF707F70CF80C2C
:1003A000BA1AF707F70CF80C3A1BF707F70CF80C1A
:1003B000BA1BF707F70CF80C38087807093E8400D9
:1003C000203085000318850A0008F800ED29B80AD6
:1003D0009929B70A6D290030F8007808A100A10812
:1003E000031D2014452A0C30BA00362103302300A7
:1003F0009100003092000B088B1395171514000024
:100400000000891B8B1713087F390319402A20002D
:10041000B700230011082000B800230012082000B4
:10042000B9003708BA0036213808230091002000AF
:100430003908230092000B088B1395171514000040
:100440000000891B8B17130D140D7F390319402AE7
:100450002000B700230011082000B8002300120874
:100460002000B9003708BA0036213808230091006F
:100470002000390823009200910A0319920AFB29EF
:1004800020002108BA003621201080317D2A20105A
:10049000A101B601B50123008C018D01220092015A
:1004A0009101940193016C302000A2006D30A300F3
:1004B0006E30A4006F30A5006830A6006930A70038
:1004C0006A30A8003130A9003230AA003330AB00C6
:1004D0003430AC003530AD003630AE003730AF00D0
:1004E0003830B0003930B1002A30B2003030B300BB
:0E04F0002330B4000628AA2862297C2A630063
:020000040001F9
:04000E00843FFF1F0D
:00000001FF
;PIC16F1827
;CRC=9F97  CREATED="18-sep.-25 12:54"
