:1000000080316B2900000B003F3406345B344F34E1
:1000100066346D347D3407347F3467340B003134FB
:100020003234333434343534363437343834393484
:100030002A34303423340B00683469346A346B3426
:100040000B006C346E346F34003021008C00D030E3
:100050008D00C0308B04803120007F2921001E10CC
:100060009E101E11003023008C008D0021000D1009
:1000700022000D1421008D1022008D1421000D117D
:1000800022000D1521008D1122008D1580312000D8
:10009000802926080739F700260CF800F80CF80C20
:1000A0001F30F8057808280784000030293D8500B6
:1000B000F801F80AF70A5D28F80DF70B5C28A70885
:1000C00003196528780880046828F80978088005ED
:1000D000080026080739F700260CF800F80CF80C81
:1000E0001F30F8057808270784000030283D850078
:1000F0000008F800F70A7D28F80CF70B7C2801307F
:10010000F80508003030A400A2012208033C031CBB
:10011000052921000D1022000D1421008D10220050
:100120008D1421000D1122000D1521008D112200CA
:100130008D15200022081B20A500A600A701013074
:10014000A900A80149202508A600A701A90180301F
:10015000A8004920A3012308023C031C032923080B
:100160002020A500A6000130A700A9018030A8002A
:1001700049202508A600A801A701692078180129AF
:1001800023082020A500A6000130A700A901803087
:10019000A80049202508A600A801A7016920781811
:1001A00001292208A5000330A600F701F80125085F
:1001B00003102618F707F70CF80CA618F707F70C2A
:1001C000F80C2619F707F70CF80CA619F707F70C27
:1001D000F80C261AF707F70CF80CA61AF707F70C15
:1001E000F80C261BF707F70CF80CA61BF707F70C03
:1001F000F80C230878070E20F800A4002408F80063
:100200000729A30AAB28A20A85286630F8008031A6
:10021000812921008D1222008D120830F80010294A
:100220000000F8172329F8132000A20C220003185D
:100230008D16031C8D12781723297813F80B1429B7
:10024000212900008D161B308400840B25292829C4
:100250000000F81B1329781B1D2920000800200826
:10026000303C031D35294630A1002008313C0319DC
:10027000A1012008323C031D3F292D30A100200898
:10028000333C031D4529D930A1002008343C031D0F
:100290004B290930A1002008353C031D512943306A
:1002A000A1002008363C031D57294930A100200831
:1002B000373C031D5D29F030A1002008383C031DA8
:1002C00063294730A1002008393C031D6929FB3010
:1002D000A100803191296A30210099008D122200FD
:1002E0008D1620302000A000A10123008C018D017B
:1002F00022009201910194019301200024282E28CC
:1003000082287808A0002008663C03199B293C300D
:10031000A20009212008A20009213E30A2000921E3
:100320002F2921080320A20021008C01200022088F
:0A03300022008C00200080296300E9
:020000040001F9
:04000E00843FFF1E0E
:00000001FF
;PIC16F1827
;CRC=C6AA  CREATED="30-oct-25 14:19"
