:0600000080311B2B000003
:0800080083018031200077081C
:10001000A0007808A1007908A2007A08A3002300B4
:1000200011082000A400230012082000A5002300CE
:1000300013082000A600230014082000A7008B1E30
:1000400023280B193C282008F7002108F800220873
:10005000F9002308FA002408230091002000250855
:100060002300920020002608230093002000270888
:1000700023009400090020008031A3282400951358
:10008000200091114E08240091000230951B4F284A
:100090002000911D492800302400161B0130F80073
:1000A0002000080024001513961596195528771876
:1000B0009612771C96161616161A5C281108F80068
:1000C000200008004A0EF700F030F7057708803866
:1000D0000438CB002400161416186C285030200069
:1000E000CE003E204B08CE003E20240016151619E7
:1000F0007728161416187A2851302000CE003E209A
:100100000130F70052207808CC00F701522078081F
:10011000CD002400161516198B2820004C08A900C4
:100120004D08A800290CFA00280CF900FA0CF90C6B
:10013000FA0CF90CFA0CF90C0F30FA057908F800F2
:100140007A08F90008003D3095003008033C031898
:10015000C028B0010130B100CA0162207908AB00AB
:100160007808AA000130CA0062207908AD0078083A
:10017000AC000230CA0062207908AF007808AE00F7
:10018000B00A0B1180312328442CBA126C32202281
:10019000591D25366410442DBA126C32000000300F
:1001A00021008C008D009116C0308B04803120001E
:1001B0003F2B20308500840000080319ED28013012
:1001C000F800F701F70BE228F80BE1284A30F700B6
:1001D000F70BE828EB28800BDF2808004718F428E5
:1001E00022008C11F628200022008C1521008C1191
:1001F0002000C718FF2822000C120129200022002D
:100200000C1621000C12200047190A2922008C121A
:100210000C29200022008C1621008C122000C71906
:10022000152922000C131729200022000C17210089
:100230000C13000022008C1421008C101F292200B6
:100240008C1021008C1020000800C80121008C15A2
:10025000003020008C190130C80421000C16003039
:1002600020000C1A0130F7000310F70D7708C804BE
:1002700021008C16003020008C1A0130F700F70D99
:10028000F70DFC30F7057708C80421000C17003083
:1002900020000C1B0130F700F70DF70DF70DF830BB
:1002A000F7057708C8044808F800080021008C10FA
:1002B0000C100C1122000C1021000C108C150C16C7
:1002C0008C160C1722000C1521000C1100002200C6
:1002D0008C1421008C100000200025217808C70014
:1002E00022008C1021008C10000022008C142100B0
:1002F0008C100000200025217808C60022008C10F8
:1003000021008C108C110C128C120C132000470E43
:10031000F700F030F70577084604F8007808C600C3
:10032000C61F942921005E29C408031D9B292200B1
:100330000C109D29200022000C1421000C1000003C
:1003400022000C1121000C11000022008C10210051
:100350008C102000450EC6000F30C6054608C700A9
:10036000EE2045080F39C600C700EE2008002830EF
:10037000B3000C30B4000130B5000630B6002200E6
:100380008C1021008C1022000C1021000C10220077
:100390000C1121000C118C110C128C120C138C10EE
:1003A0000C100C110F302000C000D9200130B20019
:1003B0003208033C031CE4290330C700EE2005305B
:1003C000C000D920B20AD8290230C700EE2005307B
:1003D000C000D920B2013208033C031CFE291330AF
:1003E00032078400203085000318850A0008B70012
:1003F000C4013708C5005621B20AEB298031402BD1
:1004000021001508C039073895003D3020009500BF
:100410008B168031412B410B0E2A112A4030C2002D
:10042000122AC20101304002C20742088038C300CC
:10043000C4014308C500562108003F08073A0319C4
:100440002B2A0B3A0319302A063A0319382A023AA2
:1004500003193E2A432A0130C000C1000B22482A5A
:10046000C4010130C50056210230C000D920482AFD
:100470000130C0000230C1000B22482AC4011030F4
:10048000C5005621482A0130C4003F08C500562146
:1004900008000508BE000408BD00B31F572ABD1799
:1004A0003D1EBD0AB209B309B20A0319B30A330EDD
:1004B000F038B900B907E23EBA00323EBC0033085A
:1004C0000F39BA07BA07BC07E93EBB00BB07BB0739
:1004D000320E0F39BB07BC07BB0DBC0DBC09BC0DF0
:1004E00032080F39BC07B90D0730B8000A30BC0715
:1004F000BB03031C772ABB07BA03031C7B2ABA077A
:10050000B903031C7F2AB907B803031C832A2030D0
:1005100085001830840007303D053D133F313D050F
:10052000031D992A3D1A01313D1A992A2030F700FE
:10053000BC2A84070030853D04081C3C031DA42A06
:100540000508203C03193D170008F700031DB02AD9
:100550003D1BB02A3D1AC72ABD19B02A2030BB2A3C
:10056000BD1FB82A2D30F70011003D13BD13BC2A62
:10057000BD153D123030F7070508B3000408B2007E
:100580007708BF001D22330885003208840001313E
:100590003D1F9C2A08000B088B1323009517151488
:1005A00000000000891B8B170318FC2A13087F39F1
:1005B0002000B400230011082000B5002300120819
:1005C0002000B6003408BF001D223508230091002A
:1005D00020003608230092000B088B139517151482
:1005E00000000000891B8B172000B20BF82AFA2AA2
:1005F0002300FC2A1A2B2300130D140D7F39200031
:10060000B400230011082000B500230012082000C8
:10061000B6003408BF001D223508230091002000D9
:10062000360823009200910A0319920A0310200051
:10063000B20BCB2A08006A30210099000D168D14E8
:100640002400171097109711FF3092002830950062
:10065000941714132000A901A801AB01AA01AD0150
:10066000AC01AF01AE01B001B10123008C018D01DD
:10067000220092019101940193012000CF28B72913
:10068000002A0C30BF001D220130C000C1000B2227
:100690004130BF001D224430BF001D224330BF0047
:1006A0001D22310B8B2B0130C0000230C1000B2208
:1006B0004430BF001D225830BF001D223A30BF0019
:1006C0001D22103084002B08B3002A08B2004922F2
:1006D000C730230091000030920003100430200046
:1006E000B200CB22103084002D08B3002C08B200D9
:1006F0004922CA30230091000030920003140430D4
:100700002000B200CB22103084002F08B3002E0846
:0A071000B2004922B101512B630031
:020000040001F9
:04000E00843FFF1E0E
:00000001FF
;PIC16F1827
;CRC=C89C  CREATED="16-oct.-25 12:35"
