:06000000803154280000CD
:0800080083018031200077081C
:10001000A0007808A1007908A2007A08A3008B1E2E
:1000200013280B191C282008F7002108F8002208C3
:10003000F9002308FA00090080311E28B23095002B
:10004000A40A2408313C03183928A401A50803197F
:100050002B2800302C280130A500A508031D3428CA
:1000600022008D103628200022008D1421008D10D2
:1000700020000B110B1180311328813021008D00DD
:100080008D0122008D018031200066282100150895
:10009000C03907389500B230200095008B16C0306B
:1000A0008B040B11803167286A30210099002000F1
:1000B000A401A501A601A70123008C018D01220046
:1000C000920191019401930120003D2846282100CE
:1000D0000D142000A8010D18A80A26080319742879
:1000E000013A03198B28A128A80803198A28A70810
:1000F00003197C2800307D280130A700A708031DC4
:10010000852822008D138728200022008D172100CA
:100110008D132000A128A808031DA128A7080319F2
:100120009328003094280130A700A708031D9C28BD
:1001300022008D139E28200022008D1721008D1390
:0A01400020002808A60067286300CD
:020000040001F9
:04000E00843FFF1E0E
:00000001FF
;PIC16F1827
;CRC=538B  CREATED="07-sept-25 23:48"
