:100000008031862B00000C008301803120007708AE
:10001000A0007808A1007908A2007A08A3002300B4
:1000200011082000A400230012082000A5002300CE
:1000300013082000A600230014082000A7000B1EB0
:1000400023288B1847288B1E27280B194928850140
:1000500091308400001F2E28111B4B282008F70028
:100060002108F8002208F9002308FA0024082300D8
:10007000910020002508230092002000260823007C
:1000800093002000270823009400090020008031FD
:100090005A2880314D2880315F283D3095002D0849
:1000A000133C03185628AD010130AE00AD0A0B1108
:1000B00080312E280130AC008B1080312E28113079
:1000C000F70021009D1C6628F70B62281B08F8002A
:1000D0001C082000AA007808A9000130AB00111309
:1000E00080312E28D03774103D1025366400013041
:1000F00021008D008C008D1022008D1021000D112B
:1001000022000D1121008D1122008D1121000D12F0
:1001100022000D1221008D1222008D1221000D13DC
:1001200022000D1321008D1322008D1321008C104D
:1001300022008C1021000C1122000C1121008C11C6
:1001400022008C1121000C1222000C1221008C12B2
:1001500022008C1221000C1322000C1321008C139E
:1001600022008C130B16C0308B04803120009D2B95
:1001700020308500840000080319CC280130F800E5
:10018000F701F70BC128F80BC0284A30F700F70B2E
:10019000C728CA28800BBE2808004718D328220089
:1001A0000D12D528200022000D1621000D1220006E
:1001B000C718DE2822008D12E028200022008D16AC
:1001C00021008D1220004719E92822000D13EB2889
:1001D000200022000D1721000D132000C719F4285C
:1001E00022008D13F628200022008D1721008D1388
:1001F000000022008D1421008D10FE2822008D1099
:1002000021008D1020000800C80121000D160030CB
:1002100020000D1A0130C80421008D160030200086
:100220008D1A0130F7000310F70D7708C80421007C
:100230000D17003020000D1B0130F700F70DF70DF2
:10024000FC30F7057708C80421008D170030200026
:100250008D1B0130F700F70DF70DF70DF830F7059E
:100260007708C8044808F800080021008D100D1117
:100270008D1122000D1121000D110D168D160D1777
:100280008D1722008D1521008D11000022008D1484
:1002900021008D100000200004217808C7002200F2
:1002A0008D1021008D10000022008D1421008D1072
:1002B0000000200004217808C60022008D102100D3
:1002C0008D100D128D120D138D132000470EF700A7
:1002D000F030F70577084604F8007808C600C61F16
:1002E000732921003D29C408031D7A2922000D111C
:1002F0007C29200022000D1521000D110000220094
:100300008D1121008D11000022008D1021008D1013
:100310002000450EC6000F30C6054608C700CD2098
:1003200045080F39C600C700CD2008002830B200AC
:100330000C30B3000130B4000630B50022008D103F
:1003400021008D1022000D1121000D1122008D11B0
:1003500021008D110D128D120D138D138D100D11A5
:100360008D110F302000C000B8200130B1003108DD
:10037000033C031CC3290330C700CD200530C00057
:10038000B820B10AB7290230C700CD200530C0001F
:10039000B820B1013108033C031CDD2912303107BC
:1003A0008400203085000318850A0008B600C401C7
:1003B0003608C5003521B10ACA2980319E2B21009B
:1003C0001E109E101E11013023008C0000308D0085
:1003D00021001E169E161E139E171D14F8001D08E0
:1003E000833978049D001117803120009F2B210054
:1003F0001508C039073895003D30200095008B1650
:100400008031A02B410B052A082A4030C200092A5E
:10041000C20101304002C20742088038C300C40153
:100420004308C500352108003F08073A0319222A6E
:100430000B3A0319272A063A03192F2A023A0319FD
:10044000352A3A2A0130C000C10002223F2AC401E5
:100450000130C50035210230C000B8203F2A0130EC
:10046000C0000230C10002223F2AC4011030C50082
:1004700035213F2A0130C4003F08C500352108005E
:100480002808023A0319482A033A0319522A822BF0
:1004900021009D1420002C0B512A2B0B512A0130D6
:1004A000A800842B2E0B812B0330230091000030F9
:1004B00092000B088B139517151400000000891B80
:1004C0008B1713087F3903199E2A2000B1002300DF
:1004D00011082000B200230012082000B3003108E8
:1004E000BF001422320823009100200033082300AB
:1004F00092000B088B139517151400000000891B40
:100500008B17130D140D7F3903199E2A2000B1009B
:10051000230011082000B200230012082000B300BD
:100520003108BF0014223208230091002000330854
:1005300023009200910A0319920A592A72309100FD
:1005400000309200031006302000B1000B088B131E
:1005500023009517151400000000891B8B17031842
:10056000D72A13087F392000B40023001108200087
:10057000B500230012082000B6003408BF00142282
:1005800035082300910020003608230092000B0854
:100590008B139517151400000000891B8B17200082
:1005A000B10BD32AD52A2300D72AF52A2300130D0D
:1005B000140D7F392000B400230011082000B5007D
:1005C000230012082000B6003408BF0014223508AA
:1005D000230091002000360823009200910A03199D
:1005E000920A03102000B10BA62A103084002A08BA
:1005F000B2002908B1000508BE000408BD00B21F02
:10060000092BBD173D1EBD0AB109B209B10A031974
:10061000B20A320EF038B900B907E23EBA00323EF3
:10062000BC0032080F39BA07BA07BC07E93EBB0065
:10063000BB07BB07310E0F39BB07BC07BB0DBC0D99
:10064000BC09BC0D31080F39BC07B90D0730B80023
:100650000A30BC07BB03031C292BBB07BA03031CCE
:100660002D2BBA07B903031C312BB907B803031CA0
:10067000352B203085001830840007303D053D13B0
:100680003F313D05031D4B2B3D1A01313D1A4B2BCC
:100690002030F7006E2B84070030853D04081C3C99
:1006A000031D562B0508203C03193D170008F700D1
:1006B000031D622B3D1B622B3D1A792BBD19622B4A
:1006C00020306D2BBD1F6A2B2D30F70011003D131C
:1006D000BD136E2BBD153D123030F7070508B20073
:1006E0000408B1007708BF001422320885003108E1
:1006F000840001313D1F4E2BAE01AB01AC01023035
:10070000A800842B0230A8008031A12B6A30210080
:1007100099002000A801AA01A901AB01AC01AD011B
:10072000AE01B001AF0123008C018D0122009201C6
:10073000910194019301200077289629DF29F72958
:06074000402AA02B63001B
:020000040001F9
:04000E00843FFF1E0E
:00000001FF
;PIC16F1827
;CRC=2496  CREATED="11-sept-25 14:08"
