:0600000080310E29000012
:0800080083018031200077081C
:10001000A0007808A1007908A2007A08A3008B1D2F
:1000200013280B1820288B1E17280B1922282008AC
:10003000F7002108F8002208F9002308FA00090057
:1000400080315028803124280C309500A4080319F1
:100050003528A60A2608073C0318352821000D106C
:1000600022000D102000A401A601A50803194D28A7
:10007000A70A2708103C031D422821008D102200EA
:100080008D1420002708203C031D4D2821008D10D1
:1000900022008D102000A501A7010B118031172827
:1000A00021000D1620000D1E5F2821000D102200DA
:1000B0000D1401302000A400A6010C309500210091
:1000C0008D1620008D1E69280130A500A7010C3077
:1000D000950021000D1720000D1FAB2821000D14E5
:1000E00020000D1C792821000C1022000C147D2802
:1000F000200021000C1022000C1021008D14200083
:100100008D1C882821008C1022008C148C28200043
:1001100021008C1022008C1021000D1520000D1DD7
:10012000972821000C1122000C159B28200021008B
:100130000C1122000C1121008D1520008D1DA62808
:1001400021008C1122008C15AA28200021008C117E
:1001500022008C11200021008D1720008D1FC12846
:1001600021000D1022000D1421008D1022008D148D
:1001700021000D1122000D1521008D1122008D1579
:100180002000FF302700160696050B108031200056
:10019000172821001E109E101E11003023008C0015
:1001A0008D00F03021008D008C000D1022000D100C
:1001B00021008D1022008D1021000D1122000D1143
:1001C00021008D1122008D1121000C1022000C1035
:1001D00021008C1022008C1021000C1122000C1127
:1001E00021008C1122008C11803120002029210057
:1001F0001508C039073895000C30200095008B1683
:10020000C0308B04803121298B15FF3027009104E9
:100210009204C0308B048031200022296A302100F2
:1002200099002000A401A501A601A70123008C01CB
:100230008D01220092019101940193012000C928AF
:08024000F728042922296300BC
:020000040001F9
:04000E00843FFF1E0E
:00000001FF
;PIC16F1827
;CRC=A2EF  CREATED="20-sept-25 11:22"
