:060000008031FC28000025
:0800080083018031200077081C
:10001000A0007808A1007908A2007A08A3008B1E2E
:1000200013280B191C282008F7002108F8002208C3
:10003000F9002308FA00090080311E283D309500A0
:10004000A40A2508043A03192C28013A031939286F
:10005000023A0319522874282408133C031838283C
:1000600021000D1022000D102000A401A5018B120B
:1000700074282408143C031D432821008D102200FD
:100080008D14502820002408273C03184F282100F5
:100090008D1022008D102000A401A5018B122200DA
:1000A000200074282408093C03187328A60A21009C
:1000B0000D11043022008D0621008D110830220020
:1000C0008D062000A4012608093C0318732821008E
:1000D0000D1122000D1121008D1122008D11200023
:1000E000A601A5018B1274280B1180311328F03062
:1000F00021008D008C000D1022000D1021008D10AC
:1001000022008D1021000D1122000D1121008D11F2
:1001100022008D1121000C1022000C1021008C10E7
:1001200022008C1021000C1122000C1121008C11D6
:1001300022008C11803120000D2921001508C039C2
:10014000073895003D30200095008B16C0308B0499
:1001500080310E2921000D1620000D1ABD28A5089A
:10016000031DBD280430A50021000D1022000D1430
:100170003D30200095008B16E32821008D162000CD
:100180008D1ACB28A508031DCB280530A5003D30CE
:1001900095008B16E32821000D1720000D1BD62893
:1001A000A508031DD6280630A500E32821008D17D9
:1001B00020008D1BE328A508031DE3280730A500B8
:1001C0003D3095008B1680310F2920308500073097
:1001D000840000080319FA280130F800F701F70B32
:1001E000EF28F80BEE284A30F700F70BF528F8282F
:1001F000800BEC28803112296A3021009900200000
:10020000A401A501A60123008C018D012200920109
:10021000910194019301200077289D28AA28143089
:08022000A700E5280E29630088
:020000040001F9
:04000E00843FFF1E0E
:00000001FF
;PIC16F1827
;CRC=FE9C  CREATED="07-sept-25 22:34"
