:1000000080312F2800000B003F3406345B344F341E
:1000100066346D347D3407347F346F340030210012
:100020008D0001308C008D0122008D018031200077
:100030003A282030850002308400000803192D285A
:100040000630F800F701F70B2328F80B22287B3045
:10005000F700F70B2928800B202880314B2823003C
:100060008C018D01220092019101940193012000E5
:10007000A1010E2821080320A20021008D012000EB
:10008000220822008D0021000C1420000C185A2890
:100090000A30A200192821000C1420000C185A283C
:1000A000A10A2108093C031CA10121000C14200015
:0800B0000C1C55283A286300DE
:020000040001F9
:04000E00843FFF1E0E
:00000001FF
;PIC16F1827
;CRC=555B  CREATED="19-ago.-25 19:34"
