:06000000803144280000DD
:0800080083018031200077081C
:10001000A0007808A1007908A2007A08A3008B1E2E
:1000200013280B191C282008F7002108F8002208C3
:10003000F9002308FA00090080311E2821000D1064
:10004000013022008D066430200095000B118031B4
:100050001328FE3021008D00013024008D00210086
:1000600095130D1022000D10803120004E28210024
:100070001508C039023895006430200095008B16B1
:10008000C0308B0480314F2823008C018D01220069
:1000900092019101940193012000292837284F28CB
:0200A0006300FB
:020000040001F9
:04000E00843FFF1F0D
:00000001FF
;PIC16F1827
;CRC=A819  CREATED="20-ago.-25 17:20"
