:0600000080314B2B0000D3
:0800080083018031200077081C
:10001000A0007808A1007908A2007A08A3002300B4
:1000200011082000A400230012082000A5002300CE
:1000300013082000A600230014082000A7008B1E30
:1000400023280B193C282008F7002108F800220873
:10005000F9002308FA002408230091002000250855
:100060002300920020002608230093002000270888
:10007000230094000900200080314F280B00313408
:100080003234333434343534363437343834393424
:100090002A34303423340B003234353433343D3099
:1000A0009500AD0A2C08023C03195A282C08033C81
:1000B000031D62282D08273C03186128AD0101307B
:1000C000AE006328AD010B11803123280C10493795
:1000D0006739E53965104336613B651D00008C21A9
:1000E0006F39F232633A61008C24EE316F39F232AB
:1000F000633A610021001E109E101E110030230083
:100100008C008D0022009201910194019301D03066
:1001100021008D0000308C00013024008D00210072
:1001200095138C1022008C1021000C1122000C1150
:1001300021008C1122008C1121000C1222000C12C3
:1001400021000C1022000C1021000C1322000C13B3
:1001500021008C1322008C13C0308B0480312000CE
:10016000642B203085001830840000080319C6284D
:100170000130F800F701F70BBB28F80BBA284A301A
:10018000F700F70BC128C428800BB82808003F18D7
:10019000CD2822000C12CF28200022000C162100AE
:1001A0000C122000BF18D82822008C11DA28200059
:1001B00022008C1521008C1120003F19E328220019
:1001C0000C13E528200022000C1721000C1320003E
:1001D000BF19EE2822008C13F028200022008C1773
:1001E00021008C13000022000C1421000C10F828B0
:1001F00022000C1021000C1020000800C00121007A
:100200000C16003020000C1A0130C00421008C159F
:10021000003020008C190130F7000310F70D77082B
:10022000C00421000C17003020000C1B0130F70027
:10023000F70DF70DFC30F7057708C00421008C1787
:10024000003020008C1B0130F700F70DF70DF70D83
:10025000F830F7057708C0044008F80008002100CE
:100260000C108C100C1122008C1021008C100C161C
:100270008C150C178C1722000C1521000C11000096
:1002800022000C1421000C1000002000FE20780831
:10029000BF0022000C1021000C10000022000C14E2
:1002A00021000C1000002000FE207808BE00220073
:1002B0000C1021000C100C128C110C138C1320004C
:1002C0003F0EF700F030F70577083E04F800780895
:1002D000BE00BE1F6D2921003729BC08031D7429EB
:1002E00022008C107629200022008C1421008C1012
:1002F000000022000C1121000C11000022000C1043
:1003000021000C1020003D0EBE000F30BE053E083F
:10031000BF00C7203D080F39BE00BF00C72008003E
:100320002830B4000C30B5000130B6000630B700FC
:1003300022000C1021000C1022008C1021008C10C7
:1003400022000C1121000C110C128C110C138C13B7
:100350000C108C100C110F302000B800B1200130AF
:10036000B3003308033C031CBD290330BF00C72082
:100370000530B800B120B30AB1290230BF00C72050
:100380000530B800B120B3013308033C031CD72962
:10039000143033078400203085000318850A0008D4
:1003A000B800BC013808BD002F21B30AC429803130
:1003B000652B8031662B21001508C0390738950060
:1003C0003D30200095008B168031672B390BE929D1
:1003D000EC294030BA00ED29BA0101303802BA07E1
:1003E0003A088038BB00BC013B08BD002F21080043
:1003F0003708073A0319062A0B3A03190B2A063A5B
:100400000319132A023A0319192A1E2A0130B800C7
:10041000B900E621232ABC010130BD002F210230A2
:10042000B800B120232A0130B8000230B900E6211B
:10043000232ABC011030BD002F21232A0130BC002B
:100440003708BD002F2108000B088B1323009517D8
:10045000151400000000891B8B1713087F3903193E
:100460006C2A2000B400230011082000B5002300EE
:1004700012082000B6003408B700F8213508230020
:10048000910020003608230092000B088B1395176B
:10049000151400000000891B8B17130D140D7F39F4
:1004A00003196C2A2000B400230011082000B500B5
:1004B000230012082000B6003408B700F8213508E0
:1004C000230091002000360823009200910A0319AE
:1004D000920A2000242A2300200008002C08003A59
:1004E00003197C2A013A03198C2A033A03192C2B8D
:1004F000013A03193A2B482B663023009100003053
:100500009200200024220130B8000230B900E62118
:10051000B0010130AC00492BB301A80A2808213CE6
:1005200003180D2B2B0803199C2A013A0319A22A40
:10053000033A0319A82AAD2ADE3021008D002000DD
:100540008D00AD2ABE3021008D0020008D00AD2A27
:100550007E3021008D0020008D00291CB92A0D0855
:100560001E391E3C031DB82A29102A08B300AA010F
:100570000C2B0D081E391E3C0319072B0D080239E0
:10058000031DC42AB401D82A0D080439031DCB2A3F
:100590000130B400D82A0D080839031DD22A0230D0
:1005A000B400D82A0D081039031DD82A0330B4002E
:1005B0003408B5000330B600F701F8013508031020
:1005C0003618F707F70CF80CB618F707F70CF80C05
:1005D0003619F707F70CF80CB619F707F70CF80CF3
:1005E000361AF707F70CF80CB61AF707F70CF80CE1
:1005F000361BF707F70CF80CB61BF707F70CF80CCF
:100600002B0878073E20F800AA0029140C2BAB0A0F
:100610002B08033C0319AB01A801FE3021008D001B
:1006200020003308F8007808AF00AF0803192B2B1F
:100630002A30B700F82130084B20F8002F02031DA4
:10064000292BB00A3008033C031D282B0230AC00D4
:100650002B2B0330AC00492B6F302300910000306E
:10066000920020002422AE01AD01AE080319352B03
:10067000AC01492B7430230091000030920020001F
:100680002422AE01AD01AE080319432BAC01492B66
:10069000AC018031682B6A30210099002000AC0148
:1006A000AD01AE01B001B201B10123008C018D0199
:1006B0002200920191019401930120002910A801C8
:1006C0002910AA01AB017A289029D929DB296E2AA1
:0406D000672B630031
:020000040001F9
:04000E00843FFF1E0E
:00000001FF
;PIC16F1827
;CRC=6AE7  CREATED="14-nov.-25 20:07"
