:0600000080311D2B000001
:0800080083018031200077081C
:10001000A0007808A1007908A2007A08A3002300B4
:1000200011082000A400230012082000A5002300CE
:1000300013082000A600230014082000A7008B1E30
:1000400023280B193C282008F7002108F800220873
:10005000F9002308FA002408230091002000250855
:100060002300920020002608230093002000270888
:10007000230094000900200080314F280B00313408
:100080003234333434343534363437343834393424
:100090002A34303423340B003234353433343D3099
:1000A0009500AD0A2C08023C03195A282C08033C81
:1000B000031D61282D08273C03186128AD0101307C
:1000C000AE000B11803123288C24EE33F232F33250
:1000D000A021EC30F6323A008C216F39F232633ACB
:1000E00061008C24EE316F39F232633A61000F30D7
:1000F00021008D0000308C00C0308B048031200046
:10010000372B203085001930840000080319962809
:100110000130F800F701F70B8B28F80B8A284A30DA
:10012000F700F70B91289428800B882808003F18C7
:100130009D2822000C129F28200022000C1621006E
:100140000C122000BF18A82822008C11AA28200019
:1001500022008C1521008C1120003F19B3282200A9
:100160000C13B528200022000C1721000C132000CE
:10017000BF19BE2822008C13C028200022008C1733
:1001800021008C13000022000C1421000C10C82840
:1001900022000C1021000C1020000800C0012100DA
:1001A0000C16003020000C1A0130C00421008C1500
:1001B000003020008C190130F7000310F70D77088C
:1001C000C00421000C17003020000C1B0130F70088
:1001D000F70DF70DFC30F7057708C00421008C17E8
:1001E000003020008C1B0130F700F70DF70DF70DE4
:1001F000F830F7057708C0044008F800080021002F
:100200000C108C100C1122008C1021008C100C167C
:100210008C150C178C1722000C1521000C110000F6
:1002200022000C1421000C1000002000CE207808C1
:10023000BF0022000C1021000C10000022000C1442
:1002400021000C1000002000CE207808BE00220003
:100250000C1021000C100C128C110C138C132000AC
:100260003F0EF700F030F70577083E04F8007808F5
:10027000BE00BE1F3D2921000729BC08031D4429DB
:1002800022008C104629200022008C1421008C10A2
:10029000000022000C1121000C11000022000C10A3
:1002A00021000C1020003D0EBE000F30BE053E08A0
:1002B000BF0097203D080F39BE00BF0097200800FF
:1002C0002830B5000C30B6000130B7000630B80059
:1002D00022000C1021000C1022008C1021008C1028
:1002E00022000C1121000C110C128C110C138C1318
:1002F0000C108C100C110F302000B900812001303F
:10030000B4003408033C031C8D290330BF00972040
:100310000530B9008120B40A81290230BF0097203E
:100320000530B9008120B4013408033C031CA7291F
:10033000153034078400203085000318850A000832
:10034000B900BC013908BD00FF20B40A94298031EE
:10035000382B8031392B21001508C039073895001A
:100360003D30200095008B1680313A2B390BB9298E
:10037000BC294030BA00BD29BA0101303802BA07A1
:100380003A088038BB00BC013B08BD00FF200800D4
:100390003708073A0319D6290B3A0319DB29063A1D
:1003A0000319E329023A0319E929EE290130B800BB
:1003B000B900B621F329BC010130BD00FF20023095
:1003C000B9008120F3290130B8000230B900B6210C
:1003D000F329BC011030BD00FF20F3290130BC001F
:1003E0003708BD00FF2008000B088B13230095176A
:1003F000151400000000891B8B1713087F3903199F
:100400003C2A2000B400230011082000B50023007E
:1004100012082000B6003408B700C82135082300B0
:10042000910020003608230092000B088B139517CB
:10043000151400000000891B8B17130D140D7F3954
:1004400003193C2A2000B400230011082000B50045
:10045000230012082000B6003408B700C821350870
:10046000230091002000360823009200910A03190E
:10047000920A2000F4292300200008002C08003AEA
:1004800003194C2A013A03195F2A033A0319042B72
:10049000013A03190F2B1A2B64302300910000300E
:1004A00092002000F4210130B8000230B900B621DA
:1004B000B001B101AD01AE010130AC001B2BB401A4
:1004C000A80A2808213C0318E02A2B0803196F2AE0
:1004D000013A0319752A033A03197B2A802ADE3070
:1004E00021008D0020008D00802ABE3021008D006B
:1004F00020008D00802A7E3021008D0020008D009C
:10050000291C8C2A0D081E391E3C031D8B2A29101C
:100510002A08B400AA01DF2A0D081E391E3C03195F
:10052000DA2A0D080239031D972AB501AB2A0D08F6
:100530000439031D9E2A0130B500AB2A0D08083985
:10054000031DA52A0230B500AB2A0D081039031D82
:10055000AB2A0330B5003508B6000330B700F70109
:10056000F801360803103718F707F70CF80CB7181E
:10057000F707F70CF80C3719F707F70CF80CB71951
:10058000F707F70CF80C371AF707F70CF80CB71A3F
:10059000F707F70CF80C371BF707F70CF80CB71B2D
:1005A000F707F70CF80C2B0878073E20F800AA0094
:1005B0002914DF2AAB0A2B08033C0319AB01A8015D
:1005C000FE3021008D0020003408F8007808AF00CC
:1005D000AF080319032B2A30B700C82130084B207D
:1005E000F8002F020319B10AB00A3008033C031DBA
:1005F000032BAD013108033C031D012B0230AC007D
:10060000032B0330AC001B2B6C3023009100003017
:1006100092002000F4212E0B0E2BAC011B2B71300D
:1006200023009100003092002000F4212E0B192BA2
:10063000AC011B2BAC0180313B2B6A3021009900AF
:100640002000AC01AD01AE01B001B101B301B201B6
:1006500023008C018D0122009201910194019301EC
:1006600020002910A8012910AA01AB0177286029D0
:0A067000A929AB293E2A3A2B6300AA
:020000040001F9
:04000E00843FFF1E0E
:00000001FF
;PIC16F1827
;CRC=F671  CREATED="20-nov.-25 19:07"
