:060000008031E12A00003E
:0800080083018031200077081C
:10001000A0007808A1007908A2007A08A3002300B4
:1000200011082000A400230012082000A5002300CE
:1000300013082000A600230014082000A7008B1E30
:1000400023280B193C282008F7002108F800220873
:10005000F9002308FA002408230091002000250855
:100060002300920020002608230093002000270888
:10007000230094000900200080313E28B230950012
:100080000130AB000B1180312328C33A6537F430BF
:100090003A1025320000C33A6537F4303A10253261
:1000A0000000FF3021008C0000308D0080312000E6
:1000B000F52A2030850019308400000803196E28C5
:1000C0000130F800F701F70B6328F80B62284A307B
:1000D000F700F70B69286C28800B6028080040188F
:1000E000752822000D127728200022000D1621000D
:1000F0000D122000C018802822008D1282282000B6
:1001000022008D1621008D12200040198B2822001C
:100110000D138D28200022000D1721000D13200043
:10012000C019962822008D139828200022008D17D0
:1001300021008D13000022000D1421000D10A028B5
:1001400022000D1021000D1020000800C101210027
:100150000D16003020000D1A0130C10421008D164B
:10016000003020008D1A0130F7000310F70D7708DA
:10017000C10421000D17003020000D1B0130F700D5
:10018000F70DF70DFC30F7057708C10421008D1736
:10019000003020008D1B0130F700F70DF70DF70D33
:1001A000F830F7057708C1044108F800080021007D
:1001B0000D108D100D1122008D1021008D100D16C7
:1001C0008D160D178D1722000D1521000D11000041
:1001D00022000D1421000D1000002000A620780838
:1001E000C00022000D1021000D10000022000D148F
:1001F00021000D1000002000A6207808BF0022007A
:100200000D1021000D100D128D120D138D132000F5
:10021000400EF700F030F70577083F04F800780843
:10022000BF00BF1F15292100DF28BD08031D1C29A1
:1002300022008D101E29200022008D1421008D1017
:10024000000022000D1121000D11000022000D10F0
:1002500021000D1020003E0EBF000F30BF053F08EB
:10026000C0006F203E080F39BF00C0006F2008009B
:100270002830AF000C30B0000130B1000630B200C1
:1002800022000D1021000D1022008D1021008D1074
:1002900022000D1121000D110D128D120D138D1361
:1002A0000D108D100D110F302000B90059200130B4
:1002B000AE002E08033C031C65290330C0006F20EC
:1002C0000530B9005920AE0A59290230C0006F200C
:1002D0000530B9005920AE012E08033C031C7F29CC
:1002E0000F302E078400203085000318850A00088F
:1002F000B300BD013308BE00D720AE0A6C2980319F
:10030000F62A21001508C03907389500B2302000C0
:1003100095008B16C0308B048031F72A3A0B912957
:1003200094294030BB009529BB0101303902BB073D
:100330003B088038BC00BD013C08BE00D720080047
:100340003808073A0319AE290B3A0319B329063ABC
:100350000319BB29023A0319C129C6290130B90082
:10036000BA008E21CB29BD010130BE00D72002305A
:10037000B9005920CB290130B9000230BA008E21D2
:10038000CB29BD011030BE00D720CB290130BD00E4
:100390003808BE00D72008000B088B1323009517E0
:1003A000151400000000891B8B170318FD29130882
:1003B0007F392000B100230011082000B200230083
:1003C00012082000B3003108B800A0213208230031
:1003D000910020003308230092000B088B1395171F
:1003E000151400000000891B8B172000AF0BF929A2
:1003F000FB292300FD291B2A2300130D140D7F392F
:100400002000B100230011082000B20023001208D0
:100410002000B3003108B800A02132082300910069
:100420002000330823009200910A0319920A031056
:100430002000AF0BCC2908003908F8013802031856
:10044000242A3808F700302AF7010830BA00B80D1E
:10045000F70D390877020318F700F80DBA0B272AB1
:1004600008002030301E3030B4002F08F700AF1FD6
:10047000412AF709F70A7708AF002D30B400B0170A
:1004800030142F08B8006430B9001C227708AF0080
:1004900030307807B5002F08B8000A30B9001C22A8
:1004A00030307707B70030307807B6003408F700EF
:1004B000303035020319602AB014B01B3015742A8D
:1004C0003408B5002030B4003030360203196C2AED
:1004D0003014B01BB014742A031D3014031D742A89
:1004E0003508B6002030B50030197B2AB0187E2AB6
:1004F0003018812A842A3408B800A0213508B800B1
:10050000A0213608B800A0213708B800A0210800B3
:10051000AE0121000C142000AE010C18AE0A2E080A
:10052000F80008002808FC3E0318D72A043ED92A00
:10053000AD01AC018822F808031DA32A0130A800F0
:10054000AB01B2309500D72AA90A2908AE000C30B9
:10055000B800A0214B30230091000030920003101E
:1005600008302000AF00CC212E08AF001830B000BA
:1005700031220130AA00AC010330A800AB01B23037
:100580009500D72A8822F808031DCD2A2B0BCD2AE7
:10059000AB010130AC000230A800D72A8822780BCA
:1005A000D72A2B0BD72AAB01A808031D00308031B6
:1005B000082B0A108A140A118207982AC22AA42A30
:1005C000CE2A6A30210099002000A801A901AA01C1
:1005D000AB01AC01AD0123008C018D012200920121
:1005E0009101940193012000512838298129453037
:1005F0002300910000309200031008302000AF006B
:10060000CC212908AF001830B0003122A801922A6D
:04061000072B630051
:020000040001F9
:04000E00843FFF1E0E
:00000001FF
;PIC16F1827
;CRC=11A1  CREATED="28-ago-25 14:27"
