:060000008031B62800006B
:0800080083018031200077081C
:10001000A0007808A1007908A2007A08A3008B1D2F
:1000200013280B1820288B1E17280B1922282008AC
:10003000F7002108F8002208F9002308FA00090057
:1000400080313D28803124280C309500A40A2408F2
:10005000103C031D302821008D1022008D1420003B
:100060002408203C031D3A2821008D1022008D1009
:100070002000A4010B118031172821000D1620004B
:100080000D1E4B2821000D1022000D1421000D1013
:1000900022000D10200021008D1620008D1AA401D1
:1000A00021000D1720000D1F6328FF3021008D0057
:1000B00020000D080F39A50021008C012000250823
:1000C00022008C00200021008D1720008D1F792830
:1000D00021000D1022000D1421008D1022008D141E
:1000E00021000D1122000D1521008D1122008D150A
:1000F0002000FF302700160696050B1080312000E7
:10010000172821001E109E101E11003023008C00A5
:100110008D00F03021008D008C000D1022000D109C
:1001200021008D1022008D1021000D1122000D11D3
:1001300021008D1122008D1180312000C528210061
:100140001508C039073895000C30200095008B1633
:10015000C0308B048031C6288B15FF3027009104F6
:100160009204C0308B0480312000C7286A302100FF
:1001700099002000A40123008C018D01220092012E
:10018000910194019301200081289F28AC28C72861
:0201900063000A
:020000040001F9
:04000E00843FFF1E0E
:00000001FF
;PIC16F1827
;CRC=292A  CREATED="03-sept-25 20:02"
