:0600000080310B29000015
:0800080083018031200077081C
:10001000A0007808A1007908A2007A08A3008B1D2F
:1000200013280B1820288B1E17280B1922282008AC
:10003000F7002108F8002208F9002308FA00090057
:1000400080315228803124283D309500250B3328FB
:100050002408093C0318332821000D1022000D103C
:100060002000A401A501260B40282408133C0318F6
:10007000402821008D1022008D1401302000AA009C
:100080002A0B4E282408273C03184E2821008D10E7
:1000900022008D102000A401A601AA01A40A0B11C0
:1000A00080311728FF3021008D0020000D08AB00A3
:1000B0002B1E5C280130A500AB1E60280130A60075
:1000C0002B1F64280130A700AB1F68280130A8004F
:1000D000FF302700160696050B10803120001728E8
:1000E000F03021008D008C000D1022000D10210039
:1000F0008D1022008D1021000D1122000D15210000
:100100008D1122008D1121000C1022000C102100F5
:100110008C1022008C1021000C1122000C112100E7
:100120008C1122008C118B15FF3027009104920452
:10013000C0308B0480312000212921001508C039EE
:10014000073895003D30200095008B16803122291C
:10015000250BAF2821000D1022000D142000270BC5
:10016000E828250BB92821000C1022000C14BD280A
:10017000200021000C1022000C102000260BC628A5
:1001800021008C1022008C14CA28200021008C1021
:1001900022008C102000280BD928290BD9282100F7
:1001A0000C1122000C1521008C1122008C11E62864
:1001B0002000280BE728290BDE28E72821000C1156
:1001C00022000C1121008C1122008C112000A701AB
:1001D000280BF828290BF82821000D1122000D11F9
:1001E00021008D1122008D152000A901A8010929E7
:1001F000280B0929290BFD28092921008D1122002E
:100200008D1121000D1122000D1501302000A900D3
:10021000A801803123296A30210099002000A4011F
:10022000A501A601A701A8010130A900AA01230088
:100230008C018D0122009201910194019301200013
:0A02400070289D28A82822296300D9
:020000040001F9
:04000E00843FFF1E0E
:00000001FF
;PIC16F1827
;CRC=1D4F  CREATED="16-sept-25 18:13"
