:06000000803145280000DC
:0800080083018031200077081C
:10001000A0007808A1007908A2007A08A3008B1E2E
:1000200013280B191C282008F7002108F8002208C3
:10003000F9002308FA00090080311E28A5080319D9
:100040002D28A40A2408073C03182D2821000D118F
:1000500022000D112000A501A4010B1180311328ED
:10006000BF3021008D000D1122000D1180312000C4
:10007000552821001508C039073895002000950142
:100080008B16C0308B04803156286A3021009900CD
:100090002000A401A50123008C018D012200920102
:1000A00091019401930120003028392821000D1678
:1000B0002000A6010D1AA60A21008D162000A70116
:1000C0008D1AA70A21000D172000A8010D1BA80AF0
:1000D00021008D172000A9018D1BA90AA608031D68
:1000E0007A28A708031D7A28A808031D7A28A908DA
:1000F00003198528A508031D852821000D1122005C
:0E0100000D1501302000A500A4015628630053
:020000040001F9
:04000E00843FFF1E0E
:00000001FF
;PIC16F1827
;CRC=C1EE  CREATED="05-sept-25 13:07"
