:060000008031A128000080
:0800080083018031200077081C
:10001000A0007808A1007908A2007A08A3008B1E2E
:1000200013280B191C282008F7002108F8002208C3
:10003000F9002308FA00090080311E283D309500A0
:10004000A60A25082602031C2828A6010130A400C0
:100050000B1180311328F83021008D000D10220083
:100060000D1421008D1022008D1021000D11220091
:100070000D1164302000A5008031B328210015083F
:10008000C039073895003D30200095008B16C030F0
:100090008B048031B4282808A5003D309500A601C6
:1000A00008002708003A03195C28013A031973284D
:1000B000033A03198A289F2821008D1022008D10F1
:1000C00021000D1122000D1121000D1022000D1430
:1000D0002000A40803197228A4012830A8004B208E
:1000E0000130A7009F2821000D1022000D102100D3
:1000F0000D1122000D1121008D1022008D14200001
:10010000A40803198928A4016430A8004B200230F8
:10011000A7009F2821000D1022000D1021008D1036
:1001200022008D1021000D1122000D152000A408C1
:1001300003199F28A4016430A8004B20A701803137
:10014000B5286A30210099002000A401A501A6016C
:10015000A70123008C018D012200920191019401DD
:0E016000930120002B283E285128B42863006C
:020000040001F9
:04000E00843FFF1E0E
:00000001FF
;PIC16F1827
;CRC=065B  CREATED="26-ago-25 15:15"
